{"project/contracts/MiningStaking.sol":{"MiningStaking":{"abi":[{"inputs":[{"internalType":"address","name":"owner_","type":"address"},{"internalType":"contract IERC20","name":"stakeToken_","type":"address"},{"internalType":"contract IERC20","name":"rewardToken_","type":"address"},{"internalType":"uint256","name":"rewardRatePerSecond_","type":"uint256"},{"internalType":"uint256[]","name":"thresholds","type":"uint256[]"},{"internalType":"uint256[]","name":"multipliers","type":"uint256[]"}],"stateMutability":"nonpayable","type":"constructor"},{"inputs":[{"internalType":"address","name":"owner","type":"address"}],"name":"OwnableInvalidOwner","type":"error"},{"inputs":[{"internalType":"address","name":"account","type":"address"}],"name":"OwnableUnauthorizedAccount","type":"error"},{"inputs":[],"name":"ReentrancyGuardReentrantCall","type":"error"},{"inputs":[{"internalType":"address","name":"token","type":"address"}],"name":"SafeERC20FailedOperation","type":"error"},{"anonymous":false,"inputs":[{"indexed":true,"internalType":"address","name":"previousOwner","type":"address"},{"indexed":true,"internalType":"address","name":"newOwner","type":"address"}],"name":"OwnershipTransferred","type":"event"},{"anonymous":false,"inputs":[{"indexed":true,"internalType":"address","name":"user","type":"address"},{"indexed":false,"internalType":"uint256","name":"reward","type":"uint256"}],"name":"RewardPaid","type":"event"},{"anonymous":false,"inputs":[{"indexed":false,"internalType":"uint256","name":"oldRate","type":"uint256"},{"indexed":false,"internalType":"uint256","name":"newRate","type":"uint256"}],"name":"RewardRateUpdated","type":"event"},{"anonymous":false,"inputs":[{"indexed":true,"internalType":"address","name":"user","type":"address"},{"indexed":false,"internalType":"uint256","name":"amount","type":"uint256"},{"indexed":false,"internalType":"uint256","name":"newStake","type":"uint256"}],"name":"Staked","type":"event"},{"anonymous":false,"inputs":[],"name":"TiersUpdated","type":"event"},{"anonymous":false,"inputs":[{"indexed":true,"internalType":"address","name":"user","type":"address"},{"indexed":false,"internalType":"uint256","name":"amount","type":"uint256"},{"indexed":false,"internalType":"uint256","name":"remaining","type":"uint256"}],"name":"Withdrawn","type":"event"},{"inputs":[{"internalType":"uint256","name":"stakeAmount","type":"uint256"}],"name":"currentMultiplier","outputs":[{"internalType":"uint256","name":"","type":"uint256"}],"stateMutability":"view","type":"function"},{"inputs":[{"internalType":"address","name":"account","type":"address"}],"name":"earned","outputs":[{"internalType":"uint256","name":"","type":"uint256"}],"stateMutability":"view","type":"function"},{"inputs":[],"name":"exit","outputs":[],"stateMutability":"nonpayable","type":"function"},{"inputs":[],"name":"getReward","outputs":[],"stateMutability":"nonpayable","type":"function"},{"inputs":[],"name":"lastUpdateTime","outputs":[{"internalType":"uint256","name":"","type":"uint256"}],"stateMutability":"view","type":"function"},{"inputs":[],"name":"owner","outputs":[{"internalType":"address","name":"","type":"address"}],"stateMutability":"view","type":"function"},{"inputs":[{"internalType":"address","name":"token","type":"address"},{"internalType":"uint256","name":"amount","type":"uint256"},{"internalType":"address","name":"to","type":"address"}],"name":"recoverToken","outputs":[],"stateMutability":"nonpayable","type":"function"},{"inputs":[],"name":"renounceOwnership","outputs":[],"stateMutability":"nonpayable","type":"function"},{"inputs":[],"name":"rewardPerWeightedStake","outputs":[{"internalType":"uint256","name":"","type":"uint256"}],"stateMutability":"view","type":"function"},{"inputs":[],"name":"rewardPerWeightedStakeStored","outputs":[{"internalType":"uint256","name":"","type":"uint256"}],"stateMutability":"view","type":"function"},{"inputs":[],"name":"rewardRatePerSecond","outputs":[{"internalType":"uint256","name":"","type":"uint256"}],"stateMutability":"view","type":"function"},{"inputs":[],"name":"rewardToken","outputs":[{"internalType":"contract IERC20","name":"","type":"address"}],"stateMutability":"view","type":"function"},{"inputs":[{"internalType":"uint256","name":"newRate","type":"uint256"}],"name":"setRewardRate","outputs":[],"stateMutability":"nonpayable","type":"function"},{"inputs":[{"internalType":"uint256[]","name":"thresholds","type":"uint256[]"},{"internalType":"uint256[]","name":"multipliers","type":"uint256[]"}],"name":"setTiers","outputs":[],"stateMutability":"nonpayable","type":"function"},{"inputs":[{"internalType":"uint256","name":"amount","type":"uint256"}],"name":"stake","outputs":[],"stateMutability":"nonpayable","type":"function"},{"inputs":[],"name":"stakeToken","outputs":[{"internalType":"contract IERC20","name":"","type":"address"}],"stateMutability":"view","type":"function"},{"inputs":[{"internalType":"uint256","name":"","type":"uint256"}],"name":"tierMultipliers","outputs":[{"internalType":"uint256","name":"","type":"uint256"}],"stateMutability":"view","type":"function"},{"inputs":[{"internalType":"uint256","name":"","type":"uint256"}],"name":"tierThresholds","outputs":[{"internalType":"uint256","name":"","type":"uint256"}],"stateMutability":"view","type":"function"},{"inputs":[],"name":"tiers","outputs":[{"internalType":"uint256[]","name":"","type":"uint256[]"},{"internalType":"uint256[]","name":"","type":"uint256[]"}],"stateMutability":"view","type":"function"},{"inputs":[],"name":"totalStaked","outputs":[{"internalType":"uint256","name":"","type":"uint256"}],"stateMutability":"view","type":"function"},{"inputs":[],"name":"totalWeightedStake","outputs":[{"internalType":"uint256","name":"","type":"uint256"}],"stateMutability":"view","type":"function"},{"inputs":[{"internalType":"address","name":"newOwner","type":"address"}],"name":"transferOwnership","outputs":[],"stateMutability":"nonpayable","type":"function"},{"inputs":[{"internalType":"address","name":"","type":"address"}],"name":"users","outputs":[{"internalType":"uint256","name":"staked","type":"uint256"},{"internalType":"uint256","name":"weightedStake","type":"uint256"},{"internalType":"uint256","name":"rewardsAccrued","type":"uint256"},{"internalType":"uint256","name":"userRewardPerWeightedStakePaid","type":"uint256"}],"stateMutability":"view","type":"function"},{"inputs":[{"internalType":"uint256","name":"amount","type":"uint256"}],"name":"withdraw","outputs":[],"stateMutability":"nonpayable","type":"function"}],"evm":{"bytecode":{"linkReferences":{},"object":"60c060405234801562000010575f80fd5b506040516200161a3803806200161a833981016040819052620000339162000317565b856001600160a01b0381166200006357604051631e4fbdf760e01b81525f60048201526024015b60405180910390fd5b6200006e8162000194565b50600180556001600160a01b038516620000b95760405162461bcd60e51b815260206004820152600b60248201526a39ba30b5b2903a37b5b2b760a91b60448201526064016200005a565b6001600160a01b038416620001005760405162461bcd60e51b815260206004820152600c60248201526b3932bbb0b932103a37b5b2b760a11b60448201526064016200005a565b80518251146200013f5760405162461bcd60e51b81526020600482015260096024820152683a34b2b939903632b760b91b60448201526064016200005a565b6001600160a01b03808616608052841660a052600283905581516200016c906008906020850190620001e3565b50805162000182906009906020840190620001e3565b50504260035550620003c49350505050565b5f80546001600160a01b038381166001600160a01b0319831681178455604051919092169283917f8be0079c531659141344cd1fd0a4f28419497f9722a3daafe3b4186f6b6457e09190a35050565b828054828255905f5260205f209081019282156200021f579160200282015b828111156200021f57825182559160200191906001019062000202565b506200022d92915062000231565b5090565b5b808211156200022d575f815560010162000232565b6001600160a01b03811681146200025c575f80fd5b50565b634e487b7160e01b5f52604160045260245ffd5b5f82601f83011262000283575f80fd5b815160206001600160401b0380831115620002a257620002a26200025f565b8260051b604051601f19603f83011681018181108482111715620002ca57620002ca6200025f565b6040529384526020818701810194908101925087851115620002ea575f80fd5b6020870191505b848210156200030c57815183529183019190830190620002f1565b979650505050505050565b5f805f805f8060c087890312156200032d575f80fd5b86516200033a8162000247565b60208801519096506200034d8162000247565b6040880151909550620003608162000247565b6060880151608089015191955093506001600160401b038082111562000384575f80fd5b620003928a838b0162000273565b935060a0890151915080821115620003a8575f80fd5b50620003b789828a0162000273565b9150509295509295509295565b60805160a05161121f620003fb5f395f8181610334015261089d01525f81816101fe015281816107510152610c3f015261121f5ff3fe608060405234801561000f575f80fd5b5060043610610152575f3560e01c8063817b1cd2116100bf578063c8f33c9111610079578063c8f33c91146102ef578063d04323c5146102f8578063e9fad8ee1461030b578063eed9da1f14610313578063f2fde38b1461031c578063f7c618c11461032f575f80fd5b8063817b1cd2146102495780638da5cb5b146102525780639e447fc614610262578063a100d69d14610275578063a694fc3a14610288578063a87430ba1461029b575f80fd5b806347b3d2951161011057806347b3d295146101bd5780634a95d9d5146101d05780634e38e64a146101e657806351ed6a30146101f95780635d773b2c14610238578063715018a614610241575f80fd5b80628cc262146101565780631b8ebc3c1461017c578063261a426c146101915780632e1a7d4d146101995780633d18b912146101ac5780633d1d26e1146101b4575b5f80fd5b610169610164366004610fe2565b610356565b6040519081526020015b60405180910390f35b61018f61018a36600461104a565b6103f6565b005b610169610525565b61018f6101a73660046110b1565b61058c565b61018f6107cc565b61016960045481565b6101696101cb3660046110b1565b610909565b6101d8610928565b604051610173929190611102565b6101696101f43660046110b1565b6109d7565b6102207f000000000000000000000000000000000000000000000000000000000000000081565b6040516001600160a01b039091168152602001610173565b61016960025481565b61018f610a4b565b61016960055481565b5f546001600160a01b0316610220565b61018f6102703660046110b1565b610a5c565b6101696102833660046110b1565b610b44565b61018f6102963660046110b1565b610b53565b6102cf6102a9366004610fe2565b60076020525f908152604090208054600182015460028301546003909301549192909184565b604080519485526020850193909352918301526060820152608001610173565b61016960035481565b61018f610306366004611126565b610d3a565b61018f610d5b565b61016960065481565b61018f61032a366004610fe2565b610d81565b6102207f000000000000000000000000000000000000000000000000000000000000000081565b6001600160a01b0381165f908152600760209081526040808320815160808101835281548152600182015493810193909352600281015491830191909152600301546060820152816103a6610525565b90505f670de0b6b3a76400008360600151836103c29190611173565b84602001516103d1919061118c565b6103db91906111a3565b90508083604001516103ed91906111c2565b95945050505050565b6103fe610dbb565b5f80610408610525565b60048190554260035590506001600160a01b0382161561049b576001600160a01b0382165f90815260076020526040812060018101549091901561047b57670de0b6b3a764000082600301548461045f9190611173565b836001015461046e919061118c565b61047891906111a3565b90505b80826002015f82825461048e91906111c2565b9091555050506003018190555b8483146104db5760405162461bcd60e51b81526020600482015260096024820152683a34b2b939903632b760b91b60448201526064015b60405180910390fd5b6104e760088787610f6a565b506104f460098585610f6a565b506040517f37740b69a1cce7c6b884ff59b1465c52017ffcb23b6e46249f50f3375b71eada905f90a1505050505050565b5f6006545f03610536575060045490565b5f600354426105459190611173565b90505f60065460025483610559919061118c565b61056b90670de0b6b3a764000061118c565b61057591906111a3565b90508060045461058591906111c2565b9250505090565b610594610de7565b335f61059e610525565b60048190554260035590506001600160a01b03821615610631576001600160a01b0382165f90815260076020526040812060018101549091901561061157670de0b6b3a76400008260030154846105f59190611173565b8360010154610604919061118c565b61060e91906111a3565b90505b80826002015f82825461062491906111c2565b9091555050506003018190555b5f831161066b5760405162461bcd60e51b81526020600482015260086024820152670616d6f756e743d360c41b60448201526064016104d2565b335f90815260076020526040902080548411156106ba5760405162461bcd60e51b815260206004820152600d60248201526c65786365656473207374616b6560981b60448201526064016104d2565b83815f015f8282546106cc9190611173565b925050819055508360055f8282546106e49190611173565b909155505080545f906106f6906109d7565b90505f670de0b6b3a764000082845f0154610711919061118c565b61071b91906111a3565b90508083600101546006546107309190611173565b61073a91906111c2565b600655600183018190556107786001600160a01b037f0000000000000000000000000000000000000000000000000000000000000000163388610e11565b825460405133917f92ccf450a286a957af52509bc1c9939d1a6a481783e142e41e2499f0bb66ebc6916107b3918a8252602082015260400190565b60405180910390a250505050506107c960018055565b50565b6107d4610de7565b335f6107de610525565b60048190554260035590506001600160a01b03821615610871576001600160a01b0382165f90815260076020526040812060018101549091901561085157670de0b6b3a76400008260030154846108359190611173565b8360010154610844919061118c565b61084e91906111a3565b90505b80826002015f82825461086491906111c2565b9091555050506003018190555b335f908152600760205260409020600281015480156108fa575f60028301556108c46001600160a01b037f0000000000000000000000000000000000000000000000000000000000000000163383610e11565b60405181815233907fe2403640ba68fed3a2f88b7557551d1993f84b99bb10ff833f0cf8db0c5e04869060200160405180910390a25b5050505061090760018055565b565b60098181548110610918575f80fd5b5f91825260209091200154905081565b606080600860098180548060200260200160405190810160405280929190818152602001828054801561097857602002820191905f5260205f20905b815481526020019060010190808311610964575b50505050509150808054806020026020016040519081016040528092919081815260200182805480156109c857602002820191905f5260205f20905b8154815260200190600101908083116109b4575b50505050509050915091509091565b6008545f90670de0b6b3a764000090825b81811015610a425760088181548110610a0357610a036111d5565b905f5260205f2001548510610a355760098181548110610a2557610a256111d5565b905f5260205f2001549250610a3a565b610a42565b6001016109e8565b50909392505050565b610a53610dbb565b6109075f610e70565b610a64610dbb565b5f80610a6e610525565b60048190554260035590506001600160a01b03821615610b01576001600160a01b0382165f908152600760205260408120600181015490919015610ae157670de0b6b3a7640000826003015484610ac59190611173565b8360010154610ad4919061118c565b610ade91906111a3565b90505b80826002015f828254610af491906111c2565b9091555050506003018190555b60025460408051918252602082018590527fc390a98ace15a7bb6bab611eedfdbb2685043b241a869420043cdfb23ccfee50910160405180910390a15050600255565b60088181548110610918575f80fd5b610b5b610de7565b335f610b65610525565b60048190554260035590506001600160a01b03821615610bf8576001600160a01b0382165f908152600760205260408120600181015490919015610bd857670de0b6b3a7640000826003015484610bbc9190611173565b8360010154610bcb919061118c565b610bd591906111a3565b90505b80826002015f828254610beb91906111c2565b9091555050506003018190555b5f8311610c325760405162461bcd60e51b81526020600482015260086024820152670616d6f756e743d360c41b60448201526064016104d2565b610c676001600160a01b037f000000000000000000000000000000000000000000000000000000000000000016333086610ebf565b8260055f828254610c7891906111c2565b9091555050335f908152600760205260408120805490918591839190610c9f9084906111c2565b909155505080545f90610cb1906109d7565b90505f670de0b6b3a764000082845f0154610ccc919061118c565b610cd691906111a3565b9050808360010154600654610ceb9190611173565b610cf591906111c2565b60065560018301819055825460405133917f1449c6dd7851abc30abf37f57715f492010519147cc2652fbc38202c18a6ee90916107b3918a8252602082015260400190565b610d42610dbb565b610d566001600160a01b0384168284610e11565b505050565b335f908152600760205260409020548015610d7957610d798161058c565b6107c96107cc565b610d89610dbb565b6001600160a01b038116610db257604051631e4fbdf760e01b81525f60048201526024016104d2565b6107c981610e70565b5f546001600160a01b031633146109075760405163118cdaa760e01b81523360048201526024016104d2565b600260015403610e0a57604051633ee5aeb560e01b815260040160405180910390fd5b6002600155565b6040516001600160a01b03838116602483015260448201839052610d5691859182169063a9059cbb906064015b604051602081830303815290604052915060e01b6020820180516001600160e01b038381831617835250505050610efe565b5f80546001600160a01b038381166001600160a01b0319831681178455604051919092169283917f8be0079c531659141344cd1fd0a4f28419497f9722a3daafe3b4186f6b6457e09190a35050565b6040516001600160a01b038481166024830152838116604483015260648201839052610ef89186918216906323b872dd90608401610e3e565b50505050565b5f8060205f8451602086015f885af180610f1d576040513d5f823e3d81fd5b50505f513d91508115610f34578060011415610f41565b6001600160a01b0384163b155b15610ef857604051635274afe760e01b81526001600160a01b03851660048201526024016104d2565b828054828255905f5260205f20908101928215610fa3579160200282015b82811115610fa3578235825591602001919060010190610f88565b50610faf929150610fb3565b5090565b5b80821115610faf575f8155600101610fb4565b80356001600160a01b0381168114610fdd575f80fd5b919050565b5f60208284031215610ff2575f80fd5b610ffb82610fc7565b9392505050565b5f8083601f840112611012575f80fd5b50813567ffffffffffffffff811115611029575f80fd5b6020830191508360208260051b8501011115611043575f80fd5b9250929050565b5f805f806040858703121561105d575f80fd5b843567ffffffffffffffff80821115611074575f80fd5b61108088838901611002565b90965094506020870135915080821115611098575f80fd5b506110a587828801611002565b95989497509550505050565b5f602082840312156110c1575f80fd5b5035919050565b5f815180845260208085019450602084015f5b838110156110f7578151875295820195908201906001016110db565b509495945050505050565b604081525f61111460408301856110c8565b82810360208401526103ed81856110c8565b5f805f60608486031215611138575f80fd5b61114184610fc7565b92506020840135915061115660408501610fc7565b90509250925092565b634e487b7160e01b5f52601160045260245ffd5b818103818111156111865761118661115f565b92915050565b80820281158282048414176111865761118661115f565b5f826111bd57634e487b7160e01b5f52601260045260245ffd5b500490565b808201808211156111865761118661115f565b634e487b7160e01b5f52603260045260245ffdfea26469706673582212201e2f299bbe20649512340647529c1c65221175222a5a7075a994bc5c74d9a3ed64736f6c63430008180033","opcodes":"PUSH1 0xC0 PUSH1 0x40 MSTORE CALLVALUE DUP1 ISZERO PUSH3 0x10 JUMPI PUSH0 DUP1 REVERT JUMPDEST POP PUSH1 0x40 MLOAD PUSH3 0x161A CODESIZE SUB DUP1 PUSH3 0x161A DUP4 CODECOPY DUP2 ADD PUSH1 0x40 DUP2 SWAP1 MSTORE PUSH3 0x33 SWAP2 PUSH3 0x317 JUMP JUMPDEST DUP6 PUSH1 0x1 PUSH1 0x1 PUSH1 0xA0 SHL SUB DUP2 AND PUSH3 0x63 JUMPI PUSH1 0x40 MLOAD PUSH4 0x1E4FBDF7 PUSH1 0xE0 SHL DUP2 MSTORE PUSH0 PUSH1 0x4 DUP3 ADD MSTORE PUSH1 0x24 ADD JUMPDEST PUSH1 0x40 MLOAD DUP1 SWAP2 SUB SWAP1 REVERT JUMPDEST PUSH3 0x6E DUP2 PUSH3 0x194 JUMP JUMPDEST POP PUSH1 0x1 DUP1 SSTORE PUSH1 0x1 PUSH1 0x1 PUSH1 0xA0 SHL SUB DUP6 AND PUSH3 0xB9 JUMPI PUSH1 0x40 MLOAD PUSH3 0x461BCD PUSH1 0xE5 SHL DUP2 MSTORE PUSH1 0x20 PUSH1 0x4 DUP3 ADD MSTORE PUSH1 0xB PUSH1 0x24 DUP3 ADD MSTORE PUSH11 0x39BA30B5B2903A37B5B2B7 PUSH1 0xA9 SHL PUSH1 0x44 DUP3 ADD MSTORE PUSH1 0x64 ADD PUSH3 0x5A JUMP JUMPDEST PUSH1 0x1 PUSH1 0x1 PUSH1 0xA0 SHL SUB DUP5 AND PUSH3 0x100 JUMPI PUSH1 0x40 MLOAD PUSH3 0x461BCD PUSH1 0xE5 SHL DUP2 MSTORE PUSH1 0x20 PUSH1 0x4 DUP3 ADD MSTORE PUSH1 0xC PUSH1 0x24 DUP3 ADD MSTORE PUSH12 0x3932BBB0B932103A37B5B2B7 PUSH1 0xA1 SHL PUSH1 0x44 DUP3 ADD MSTORE PUSH1 0x64 ADD PUSH3 0x5A JUMP JUMPDEST DUP1 MLOAD DUP3 MLOAD EQ PUSH3 0x13F JUMPI PUSH1 0x40 MLOAD PUSH3 0x461BCD PUSH1 0xE5 SHL DUP2 MSTORE PUSH1 0x20 PUSH1 0x4 DUP3 ADD MSTORE PUSH1 0x9 PUSH1 0x24 DUP3 ADD MSTORE PUSH9 0x3A34B2B939903632B7 PUSH1 0xB9 SHL PUSH1 0x44 DUP3 ADD MSTORE PUSH1 0x64 ADD PUSH3 0x5A JUMP JUMPDEST PUSH1 0x1 PUSH1 0x1 PUSH1 0xA0 SHL SUB DUP1 DUP7 AND PUSH1 0x80 MSTORE DUP5 AND PUSH1 0xA0 MSTORE PUSH1 0x2 DUP4 SWAP1 SSTORE DUP2 MLOAD PUSH3 0x16C SWAP1 PUSH1 0x8 SWAP1 PUSH1 0x20 DUP6 ADD SWAP1 PUSH3 0x1E3 JUMP JUMPDEST POP DUP1 MLOAD PUSH3 0x182 SWAP1 PUSH1 0x9 SWAP1 PUSH1 0x20 DUP5 ADD SWAP1 PUSH3 0x1E3 JUMP JUMPDEST POP POP TIMESTAMP PUSH1 0x3 SSTORE POP PUSH3 0x3C4 SWAP4 POP POP POP POP JUMP JUMPDEST PUSH0 DUP1 SLOAD PUSH1 0x1 PUSH1 0x1 PUSH1 0xA0 SHL SUB DUP4 DUP2 AND PUSH1 0x1 PUSH1 0x1 PUSH1 0xA0 SHL SUB NOT DUP4 AND DUP2 OR DUP5 SSTORE PUSH1 0x40 MLOAD SWAP2 SWAP1 SWAP3 AND SWAP3 DUP4 SWAP2 PUSH32 0x8BE0079C531659141344CD1FD0A4F28419497F9722A3DAAFE3B4186F6B6457E0 SWAP2 SWAP1 LOG3 POP POP JUMP JUMPDEST DUP3 DUP1 SLOAD DUP3 DUP3 SSTORE SWAP1 PUSH0 MSTORE PUSH1 0x20 PUSH0 KECCAK256 SWAP1 DUP2 ADD SWAP3 DUP3 ISZERO PUSH3 0x21F JUMPI SWAP2 PUSH1 0x20 MUL DUP3 ADD JUMPDEST DUP3 DUP2 GT ISZERO PUSH3 0x21F JUMPI DUP3 MLOAD DUP3 SSTORE SWAP2 PUSH1 0x20 ADD SWAP2 SWAP1 PUSH1 0x1 ADD SWAP1 PUSH3 0x202 JUMP JUMPDEST POP PUSH3 0x22D SWAP3 SWAP2 POP PUSH3 0x231 JUMP JUMPDEST POP SWAP1 JUMP JUMPDEST JUMPDEST DUP1 DUP3 GT ISZERO PUSH3 0x22D JUMPI PUSH0 DUP2 SSTORE PUSH1 0x1 ADD PUSH3 0x232 JUMP JUMPDEST PUSH1 0x1 PUSH1 0x1 PUSH1 0xA0 SHL SUB DUP2 AND DUP2 EQ PUSH3 0x25C JUMPI PUSH0 DUP1 REVERT JUMPDEST POP JUMP JUMPDEST PUSH4 0x4E487B71 PUSH1 0xE0 SHL PUSH0 MSTORE PUSH1 0x41 PUSH1 0x4 MSTORE PUSH1 0x24 PUSH0 REVERT JUMPDEST PUSH0 DUP3 PUSH1 0x1F DUP4 ADD SLT PUSH3 0x283 JUMPI PUSH0 DUP1 REVERT JUMPDEST DUP2 MLOAD PUSH1 0x20 PUSH1 0x1 PUSH1 0x1 PUSH1 0x40 SHL SUB DUP1 DUP4 GT ISZERO PUSH3 0x2A2 JUMPI PUSH3 0x2A2 PUSH3 0x25F JUMP JUMPDEST DUP3 PUSH1 0x5 SHL PUSH1 0x40 MLOAD PUSH1 0x1F NOT PUSH1 0x3F DUP4 ADD AND DUP2 ADD DUP2 DUP2 LT DUP5 DUP3 GT OR ISZERO PUSH3 0x2CA JUMPI PUSH3 0x2CA PUSH3 0x25F JUMP JUMPDEST PUSH1 0x40 MSTORE SWAP4 DUP5 MSTORE PUSH1 0x20 DUP2 DUP8 ADD DUP2 ADD SWAP5 SWAP1 DUP2 ADD SWAP3 POP DUP8 DUP6 GT ISZERO PUSH3 0x2EA JUMPI PUSH0 DUP1 REVERT JUMPDEST PUSH1 0x20 DUP8 ADD SWAP2 POP JUMPDEST DUP5 DUP3 LT ISZERO PUSH3 0x30C JUMPI DUP2 MLOAD DUP4 MSTORE SWAP2 DUP4 ADD SWAP2 SWAP1 DUP4 ADD SWAP1 PUSH3 0x2F1 JUMP JUMPDEST SWAP8 SWAP7 POP POP POP POP POP POP POP JUMP JUMPDEST PUSH0 DUP1 PUSH0 DUP1 PUSH0 DUP1 PUSH1 0xC0 DUP8 DUP10 SUB SLT ISZERO PUSH3 0x32D JUMPI PUSH0 DUP1 REVERT JUMPDEST DUP7 MLOAD PUSH3 0x33A DUP2 PUSH3 0x247 JUMP JUMPDEST PUSH1 0x20 DUP9 ADD MLOAD SWAP1 SWAP7 POP PUSH3 0x34D DUP2 PUSH3 0x247 JUMP JUMPDEST PUSH1 0x40 DUP9 ADD MLOAD SWAP1 SWAP6 POP PUSH3 0x360 DUP2 PUSH3 0x247 JUMP JUMPDEST PUSH1 0x60 DUP9 ADD MLOAD PUSH1 0x80 DUP10 ADD MLOAD SWAP2 SWAP6 POP SWAP4 POP PUSH1 0x1 PUSH1 0x1 PUSH1 0x40 SHL SUB DUP1 DUP3 GT ISZERO PUSH3 0x384 JUMPI PUSH0 DUP1 REVERT JUMPDEST PUSH3 0x392 DUP11 DUP4 DUP12 ADD PUSH3 0x273 JUMP JUMPDEST SWAP4 POP PUSH1 0xA0 DUP10 ADD MLOAD SWAP2 POP DUP1 DUP3 GT ISZERO PUSH3 0x3A8 JUMPI PUSH0 DUP1 REVERT JUMPDEST POP PUSH3 0x3B7 DUP10 DUP3 DUP11 ADD PUSH3 0x273 JUMP JUMPDEST SWAP2 POP POP SWAP3 SWAP6 POP SWAP3 SWAP6 POP SWAP3 SWAP6 JUMP JUMPDEST PUSH1 0x80 MLOAD PUSH1 0xA0 MLOAD PUSH2 0x121F PUSH3 0x3FB PUSH0 CODECOPY PUSH0 DUP2 DUP2 PUSH2 0x334 ADD MSTORE PUSH2 0x89D ADD MSTORE PUSH0 DUP2 DUP2 PUSH2 0x1FE ADD MSTORE DUP2 DUP2 PUSH2 0x751 ADD MSTORE PUSH2 0xC3F ADD MSTORE PUSH2 0x121F PUSH0 RETURN INVALID PUSH1 0x80 PUSH1 0x40 MSTORE CALLVALUE DUP1 ISZERO PUSH2 0xF JUMPI PUSH0 DUP1 REVERT JUMPDEST POP PUSH1 0x4 CALLDATASIZE LT PUSH2 0x152 JUMPI PUSH0 CALLDATALOAD PUSH1 0xE0 SHR DUP1 PUSH4 0x817B1CD2 GT PUSH2 0xBF JUMPI DUP1 PUSH4 0xC8F33C91 GT PUSH2 0x79 JUMPI DUP1 PUSH4 0xC8F33C91 EQ PUSH2 0x2EF JUMPI DUP1 PUSH4 0xD04323C5 EQ PUSH2 0x2F8 JUMPI DUP1 PUSH4 0xE9FAD8EE EQ PUSH2 0x30B JUMPI DUP1 PUSH4 0xEED9DA1F EQ PUSH2 0x313 JUMPI DUP1 PUSH4 0xF2FDE38B EQ PUSH2 0x31C JUMPI DUP1 PUSH4 0xF7C618C1 EQ PUSH2 0x32F JUMPI PUSH0 DUP1 REVERT JUMPDEST DUP1 PUSH4 0x817B1CD2 EQ PUSH2 0x249 JUMPI DUP1 PUSH4 0x8DA5CB5B EQ PUSH2 0x252 JUMPI DUP1 PUSH4 0x9E447FC6 EQ PUSH2 0x262 JUMPI DUP1 PUSH4 0xA100D69D EQ PUSH2 0x275 JUMPI DUP1 PUSH4 0xA694FC3A EQ PUSH2 0x288 JUMPI DUP1 PUSH4 0xA87430BA EQ PUSH2 0x29B JUMPI PUSH0 DUP1 REVERT JUMPDEST DUP1 PUSH4 0x47B3D295 GT PUSH2 0x110 JUMPI DUP1 PUSH4 0x47B3D295 EQ PUSH2 0x1BD JUMPI DUP1 PUSH4 0x4A95D9D5 EQ PUSH2 0x1D0 JUMPI DUP1 PUSH4 0x4E38E64A EQ PUSH2 0x1E6 JUMPI DUP1 PUSH4 0x51ED6A30 EQ PUSH2 0x1F9 JUMPI DUP1 PUSH4 0x5D773B2C EQ PUSH2 0x238 JUMPI DUP1 PUSH4 0x715018A6 EQ PUSH2 0x241 JUMPI PUSH0 DUP1 REVERT JUMPDEST DUP1 PUSH3 0x8CC262 EQ PUSH2 0x156 JUMPI DUP1 PUSH4 0x1B8EBC3C EQ PUSH2 0x17C JUMPI DUP1 PUSH4 0x261A426C EQ PUSH2 0x191 JUMPI DUP1 PUSH4 0x2E1A7D4D EQ PUSH2 0x199 JUMPI DUP1 PUSH4 0x3D18B912 EQ PUSH2 0x1AC JUMPI DUP1 PUSH4 0x3D1D26E1 EQ PUSH2 0x1B4 JUMPI JUMPDEST PUSH0 DUP1 REVERT JUMPDEST PUSH2 0x169 PUSH2 0x164 CALLDATASIZE PUSH1 0x4 PUSH2 0xFE2 JUMP JUMPDEST PUSH2 0x356 JUMP JUMPDEST PUSH1 0x40 MLOAD SWAP1 DUP2 MSTORE PUSH1 0x20 ADD JUMPDEST PUSH1 0x40 MLOAD DUP1 SWAP2 SUB SWAP1 RETURN JUMPDEST PUSH2 0x18F PUSH2 0x18A CALLDATASIZE PUSH1 0x4 PUSH2 0x104A JUMP JUMPDEST PUSH2 0x3F6 JUMP JUMPDEST STOP JUMPDEST PUSH2 0x169 PUSH2 0x525 JUMP JUMPDEST PUSH2 0x18F PUSH2 0x1A7 CALLDATASIZE PUSH1 0x4 PUSH2 0x10B1 JUMP JUMPDEST PUSH2 0x58C JUMP JUMPDEST PUSH2 0x18F PUSH2 0x7CC JUMP JUMPDEST PUSH2 0x169 PUSH1 0x4 SLOAD DUP2 JUMP JUMPDEST PUSH2 0x169 PUSH2 0x1CB CALLDATASIZE PUSH1 0x4 PUSH2 0x10B1 JUMP JUMPDEST PUSH2 0x909 JUMP JUMPDEST PUSH2 0x1D8 PUSH2 0x928 JUMP JUMPDEST PUSH1 0x40 MLOAD PUSH2 0x173 SWAP3 SWAP2 SWAP1 PUSH2 0x1102 JUMP JUMPDEST PUSH2 0x169 PUSH2 0x1F4 CALLDATASIZE PUSH1 0x4 PUSH2 0x10B1 JUMP JUMPDEST PUSH2 0x9D7 JUMP JUMPDEST PUSH2 0x220 PUSH32 0x0 DUP2 JUMP JUMPDEST PUSH1 0x40 MLOAD PUSH1 0x1 PUSH1 0x1 PUSH1 0xA0 SHL SUB SWAP1 SWAP2 AND DUP2 MSTORE PUSH1 0x20 ADD PUSH2 0x173 JUMP JUMPDEST PUSH2 0x169 PUSH1 0x2 SLOAD DUP2 JUMP JUMPDEST PUSH2 0x18F PUSH2 0xA4B JUMP JUMPDEST PUSH2 0x169 PUSH1 0x5 SLOAD DUP2 JUMP JUMPDEST PUSH0 SLOAD PUSH1 0x1 PUSH1 0x1 PUSH1 0xA0 SHL SUB AND PUSH2 0x220 JUMP JUMPDEST PUSH2 0x18F PUSH2 0x270 CALLDATASIZE PUSH1 0x4 PUSH2 0x10B1 JUMP JUMPDEST PUSH2 0xA5C JUMP JUMPDEST PUSH2 0x169 PUSH2 0x283 CALLDATASIZE PUSH1 0x4 PUSH2 0x10B1 JUMP JUMPDEST PUSH2 0xB44 JUMP JUMPDEST PUSH2 0x18F PUSH2 0x296 CALLDATASIZE PUSH1 0x4 PUSH2 0x10B1 JUMP JUMPDEST PUSH2 0xB53 JUMP JUMPDEST PUSH2 0x2CF PUSH2 0x2A9 CALLDATASIZE PUSH1 0x4 PUSH2 0xFE2 JUMP JUMPDEST PUSH1 0x7 PUSH1 0x20 MSTORE PUSH0 SWAP1 DUP2 MSTORE PUSH1 0x40 SWAP1 KECCAK256 DUP1 SLOAD PUSH1 0x1 DUP3 ADD SLOAD PUSH1 0x2 DUP4 ADD SLOAD PUSH1 0x3 SWAP1 SWAP4 ADD SLOAD SWAP2 SWAP3 SWAP1 SWAP2 DUP5 JUMP JUMPDEST PUSH1 0x40 DUP1 MLOAD SWAP5 DUP6 MSTORE PUSH1 0x20 DUP6 ADD SWAP4 SWAP1 SWAP4 MSTORE SWAP2 DUP4 ADD MSTORE PUSH1 0x60 DUP3 ADD MSTORE PUSH1 0x80 ADD PUSH2 0x173 JUMP JUMPDEST PUSH2 0x169 PUSH1 0x3 SLOAD DUP2 JUMP JUMPDEST PUSH2 0x18F PUSH2 0x306 CALLDATASIZE PUSH1 0x4 PUSH2 0x1126 JUMP JUMPDEST PUSH2 0xD3A JUMP JUMPDEST PUSH2 0x18F PUSH2 0xD5B JUMP JUMPDEST PUSH2 0x169 PUSH1 0x6 SLOAD DUP2 JUMP JUMPDEST PUSH2 0x18F PUSH2 0x32A CALLDATASIZE PUSH1 0x4 PUSH2 0xFE2 JUMP JUMPDEST PUSH2 0xD81 JUMP JUMPDEST PUSH2 0x220 PUSH32 0x0 DUP2 JUMP JUMPDEST PUSH1 0x1 PUSH1 0x1 PUSH1 0xA0 SHL SUB DUP2 AND PUSH0 SWAP1 DUP2 MSTORE PUSH1 0x7 PUSH1 0x20 SWAP1 DUP2 MSTORE PUSH1 0x40 DUP1 DUP4 KECCAK256 DUP2 MLOAD PUSH1 0x80 DUP2 ADD DUP4 MSTORE DUP2 SLOAD DUP2 MSTORE PUSH1 0x1 DUP3 ADD SLOAD SWAP4 DUP2 ADD SWAP4 SWAP1 SWAP4 MSTORE PUSH1 0x2 DUP2 ADD SLOAD SWAP2 DUP4 ADD SWAP2 SWAP1 SWAP2 MSTORE PUSH1 0x3 ADD SLOAD PUSH1 0x60 DUP3 ADD MSTORE DUP2 PUSH2 0x3A6 PUSH2 0x525 JUMP JUMPDEST SWAP1 POP PUSH0 PUSH8 0xDE0B6B3A7640000 DUP4 PUSH1 0x60 ADD MLOAD DUP4 PUSH2 0x3C2 SWAP2 SWAP1 PUSH2 0x1173 JUMP JUMPDEST DUP5 PUSH1 0x20 ADD MLOAD PUSH2 0x3D1 SWAP2 SWAP1 PUSH2 0x118C JUMP JUMPDEST PUSH2 0x3DB SWAP2 SWAP1 PUSH2 0x11A3 JUMP JUMPDEST SWAP1 POP DUP1 DUP4 PUSH1 0x40 ADD MLOAD PUSH2 0x3ED SWAP2 SWAP1 PUSH2 0x11C2 JUMP JUMPDEST SWAP6 SWAP5 POP POP POP POP POP JUMP JUMPDEST PUSH2 0x3FE PUSH2 0xDBB JUMP JUMPDEST PUSH0 DUP1 PUSH2 0x408 PUSH2 0x525 JUMP JUMPDEST PUSH1 0x4 DUP2 SWAP1 SSTORE TIMESTAMP PUSH1 0x3 SSTORE SWAP1 POP PUSH1 0x1 PUSH1 0x1 PUSH1 0xA0 SHL SUB DUP3 AND ISZERO PUSH2 0x49B JUMPI PUSH1 0x1 PUSH1 0x1 PUSH1 0xA0 SHL SUB DUP3 AND PUSH0 SWAP1 DUP2 MSTORE PUSH1 0x7 PUSH1 0x20 MSTORE PUSH1 0x40 DUP2 KECCAK256 PUSH1 0x1 DUP2 ADD SLOAD SWAP1 SWAP2 SWAP1 ISZERO PUSH2 0x47B JUMPI PUSH8 0xDE0B6B3A7640000 DUP3 PUSH1 0x3 ADD SLOAD DUP5 PUSH2 0x45F SWAP2 SWAP1 PUSH2 0x1173 JUMP JUMPDEST DUP4 PUSH1 0x1 ADD SLOAD PUSH2 0x46E SWAP2 SWAP1 PUSH2 0x118C JUMP JUMPDEST PUSH2 0x478 SWAP2 SWAP1 PUSH2 0x11A3 JUMP JUMPDEST SWAP1 POP JUMPDEST DUP1 DUP3 PUSH1 0x2 ADD PUSH0 DUP3 DUP3 SLOAD PUSH2 0x48E SWAP2 SWAP1 PUSH2 0x11C2 JUMP JUMPDEST SWAP1 SWAP2 SSTORE POP POP POP PUSH1 0x3 ADD DUP2 SWAP1 SSTORE JUMPDEST DUP5 DUP4 EQ PUSH2 0x4DB JUMPI PUSH1 0x40 MLOAD PUSH3 0x461BCD PUSH1 0xE5 SHL DUP2 MSTORE PUSH1 0x20 PUSH1 0x4 DUP3 ADD MSTORE PUSH1 0x9 PUSH1 0x24 DUP3 ADD MSTORE PUSH9 0x3A34B2B939903632B7 PUSH1 0xB9 SHL PUSH1 0x44 DUP3 ADD MSTORE PUSH1 0x64 ADD JUMPDEST PUSH1 0x40 MLOAD DUP1 SWAP2 SUB SWAP1 REVERT JUMPDEST PUSH2 0x4E7 PUSH1 0x8 DUP8 DUP8 PUSH2 0xF6A JUMP JUMPDEST POP PUSH2 0x4F4 PUSH1 0x9 DUP6 DUP6 PUSH2 0xF6A JUMP JUMPDEST POP PUSH1 0x40 MLOAD PUSH32 0x37740B69A1CCE7C6B884FF59B1465C52017FFCB23B6E46249F50F3375B71EADA SWAP1 PUSH0 SWAP1 LOG1 POP POP POP POP POP POP JUMP JUMPDEST PUSH0 PUSH1 0x6 SLOAD PUSH0 SUB PUSH2 0x536 JUMPI POP PUSH1 0x4 SLOAD SWAP1 JUMP JUMPDEST PUSH0 PUSH1 0x3 SLOAD TIMESTAMP PUSH2 0x545 SWAP2 SWAP1 PUSH2 0x1173 JUMP JUMPDEST SWAP1 POP PUSH0 PUSH1 0x6 SLOAD PUSH1 0x2 SLOAD DUP4 PUSH2 0x559 SWAP2 SWAP1 PUSH2 0x118C JUMP JUMPDEST PUSH2 0x56B SWAP1 PUSH8 0xDE0B6B3A7640000 PUSH2 0x118C JUMP JUMPDEST PUSH2 0x575 SWAP2 SWAP1 PUSH2 0x11A3 JUMP JUMPDEST SWAP1 POP DUP1 PUSH1 0x4 SLOAD PUSH2 0x585 SWAP2 SWAP1 PUSH2 0x11C2 JUMP JUMPDEST SWAP3 POP POP POP SWAP1 JUMP JUMPDEST PUSH2 0x594 PUSH2 0xDE7 JUMP JUMPDEST CALLER PUSH0 PUSH2 0x59E PUSH2 0x525 JUMP JUMPDEST PUSH1 0x4 DUP2 SWAP1 SSTORE TIMESTAMP PUSH1 0x3 SSTORE SWAP1 POP PUSH1 0x1 PUSH1 0x1 PUSH1 0xA0 SHL SUB DUP3 AND ISZERO PUSH2 0x631 JUMPI PUSH1 0x1 PUSH1 0x1 PUSH1 0xA0 SHL SUB DUP3 AND PUSH0 SWAP1 DUP2 MSTORE PUSH1 0x7 PUSH1 0x20 MSTORE PUSH1 0x40 DUP2 KECCAK256 PUSH1 0x1 DUP2 ADD SLOAD SWAP1 SWAP2 SWAP1 ISZERO PUSH2 0x611 JUMPI PUSH8 0xDE0B6B3A7640000 DUP3 PUSH1 0x3 ADD SLOAD DUP5 PUSH2 0x5F5 SWAP2 SWAP1 PUSH2 0x1173 JUMP JUMPDEST DUP4 PUSH1 0x1 ADD SLOAD PUSH2 0x604 SWAP2 SWAP1 PUSH2 0x118C JUMP JUMPDEST PUSH2 0x60E SWAP2 SWAP1 PUSH2 0x11A3 JUMP JUMPDEST SWAP1 POP JUMPDEST DUP1 DUP3 PUSH1 0x2 ADD PUSH0 DUP3 DUP3 SLOAD PUSH2 0x624 SWAP2 SWAP1 PUSH2 0x11C2 JUMP JUMPDEST SWAP1 SWAP2 SSTORE POP POP POP PUSH1 0x3 ADD DUP2 SWAP1 SSTORE JUMPDEST PUSH0 DUP4 GT PUSH2 0x66B JUMPI PUSH1 0x40 MLOAD PUSH3 0x461BCD PUSH1 0xE5 SHL DUP2 MSTORE PUSH1 0x20 PUSH1 0x4 DUP3 ADD MSTORE PUSH1 0x8 PUSH1 0x24 DUP3 ADD MSTORE PUSH8 0x616D6F756E743D3 PUSH1 0xC4 SHL PUSH1 0x44 DUP3 ADD MSTORE PUSH1 0x64 ADD PUSH2 0x4D2 JUMP JUMPDEST CALLER PUSH0 SWAP1 DUP2 MSTORE PUSH1 0x7 PUSH1 0x20 MSTORE PUSH1 0x40 SWAP1 KECCAK256 DUP1 SLOAD DUP5 GT ISZERO PUSH2 0x6BA JUMPI PUSH1 0x40 MLOAD PUSH3 0x461BCD PUSH1 0xE5 SHL DUP2 MSTORE PUSH1 0x20 PUSH1 0x4 DUP3 ADD MSTORE PUSH1 0xD PUSH1 0x24 DUP3 ADD MSTORE PUSH13 0x65786365656473207374616B65 PUSH1 0x98 SHL PUSH1 0x44 DUP3 ADD MSTORE PUSH1 0x64 ADD PUSH2 0x4D2 JUMP JUMPDEST DUP4 DUP2 PUSH0 ADD PUSH0 DUP3 DUP3 SLOAD PUSH2 0x6CC SWAP2 SWAP1 PUSH2 0x1173 JUMP JUMPDEST SWAP3 POP POP DUP2 SWAP1 SSTORE POP DUP4 PUSH1 0x5 PUSH0 DUP3 DUP3 SLOAD PUSH2 0x6E4 SWAP2 SWAP1 PUSH2 0x1173 JUMP JUMPDEST SWAP1 SWAP2 SSTORE POP POP DUP1 SLOAD PUSH0 SWAP1 PUSH2 0x6F6 SWAP1 PUSH2 0x9D7 JUMP JUMPDEST SWAP1 POP PUSH0 PUSH8 0xDE0B6B3A7640000 DUP3 DUP5 PUSH0 ADD SLOAD PUSH2 0x711 SWAP2 SWAP1 PUSH2 0x118C JUMP JUMPDEST PUSH2 0x71B SWAP2 SWAP1 PUSH2 0x11A3 JUMP JUMPDEST SWAP1 POP DUP1 DUP4 PUSH1 0x1 ADD SLOAD PUSH1 0x6 SLOAD PUSH2 0x730 SWAP2 SWAP1 PUSH2 0x1173 JUMP JUMPDEST PUSH2 0x73A SWAP2 SWAP1 PUSH2 0x11C2 JUMP JUMPDEST PUSH1 0x6 SSTORE PUSH1 0x1 DUP4 ADD DUP2 SWAP1 SSTORE PUSH2 0x778 PUSH1 0x1 PUSH1 0x1 PUSH1 0xA0 SHL SUB PUSH32 0x0 AND CALLER DUP9 PUSH2 0xE11 JUMP JUMPDEST DUP3 SLOAD PUSH1 0x40 MLOAD CALLER SWAP2 PUSH32 0x92CCF450A286A957AF52509BC1C9939D1A6A481783E142E41E2499F0BB66EBC6 SWAP2 PUSH2 0x7B3 SWAP2 DUP11 DUP3 MSTORE PUSH1 0x20 DUP3 ADD MSTORE PUSH1 0x40 ADD SWAP1 JUMP JUMPDEST PUSH1 0x40 MLOAD DUP1 SWAP2 SUB SWAP1 LOG2 POP POP POP POP POP PUSH2 0x7C9 PUSH1 0x1 DUP1 SSTORE JUMP JUMPDEST POP JUMP JUMPDEST PUSH2 0x7D4 PUSH2 0xDE7 JUMP JUMPDEST CALLER PUSH0 PUSH2 0x7DE PUSH2 0x525 JUMP JUMPDEST PUSH1 0x4 DUP2 SWAP1 SSTORE TIMESTAMP PUSH1 0x3 SSTORE SWAP1 POP PUSH1 0x1 PUSH1 0x1 PUSH1 0xA0 SHL SUB DUP3 AND ISZERO PUSH2 0x871 JUMPI PUSH1 0x1 PUSH1 0x1 PUSH1 0xA0 SHL SUB DUP3 AND PUSH0 SWAP1 DUP2 MSTORE PUSH1 0x7 PUSH1 0x20 MSTORE PUSH1 0x40 DUP2 KECCAK256 PUSH1 0x1 DUP2 ADD SLOAD SWAP1 SWAP2 SWAP1 ISZERO PUSH2 0x851 JUMPI PUSH8 0xDE0B6B3A7640000 DUP3 PUSH1 0x3 ADD SLOAD DUP5 PUSH2 0x835 SWAP2 SWAP1 PUSH2 0x1173 JUMP JUMPDEST DUP4 PUSH1 0x1 ADD SLOAD PUSH2 0x844 SWAP2 SWAP1 PUSH2 0x118C JUMP JUMPDEST PUSH2 0x84E SWAP2 SWAP1 PUSH2 0x11A3 JUMP JUMPDEST SWAP1 POP JUMPDEST DUP1 DUP3 PUSH1 0x2 ADD PUSH0 DUP3 DUP3 SLOAD PUSH2 0x864 SWAP2 SWAP1 PUSH2 0x11C2 JUMP JUMPDEST SWAP1 SWAP2 SSTORE POP POP POP PUSH1 0x3 ADD DUP2 SWAP1 SSTORE JUMPDEST CALLER PUSH0 SWAP1 DUP2 MSTORE PUSH1 0x7 PUSH1 0x20 MSTORE PUSH1 0x40 SWAP1 KECCAK256 PUSH1 0x2 DUP2 ADD SLOAD DUP1 ISZERO PUSH2 0x8FA JUMPI PUSH0 PUSH1 0x2 DUP4 ADD SSTORE PUSH2 0x8C4 PUSH1 0x1 PUSH1 0x1 PUSH1 0xA0 SHL SUB PUSH32 0x0 AND CALLER DUP4 PUSH2 0xE11 JUMP JUMPDEST PUSH1 0x40 MLOAD DUP2 DUP2 MSTORE CALLER SWAP1 PUSH32 0xE2403640BA68FED3A2F88B7557551D1993F84B99BB10FF833F0CF8DB0C5E0486 SWAP1 PUSH1 0x20 ADD PUSH1 0x40 MLOAD DUP1 SWAP2 SUB SWAP1 LOG2 JUMPDEST POP POP POP POP PUSH2 0x907 PUSH1 0x1 DUP1 SSTORE JUMP JUMPDEST JUMP JUMPDEST PUSH1 0x9 DUP2 DUP2 SLOAD DUP2 LT PUSH2 0x918 JUMPI PUSH0 DUP1 REVERT JUMPDEST PUSH0 SWAP2 DUP3 MSTORE PUSH1 0x20 SWAP1 SWAP2 KECCAK256 ADD SLOAD SWAP1 POP DUP2 JUMP JUMPDEST PUSH1 0x60 DUP1 PUSH1 0x8 PUSH1 0x9 DUP2 DUP1 SLOAD DUP1 PUSH1 0x20 MUL PUSH1 0x20 ADD PUSH1 0x40 MLOAD SWAP1 DUP2 ADD PUSH1 0x40 MSTORE DUP1 SWAP3 SWAP2 SWAP1 DUP2 DUP2 MSTORE PUSH1 0x20 ADD DUP3 DUP1 SLOAD DUP1 ISZERO PUSH2 0x978 JUMPI PUSH1 0x20 MUL DUP3 ADD SWAP2 SWAP1 PUSH0 MSTORE PUSH1 0x20 PUSH0 KECCAK256 SWAP1 JUMPDEST DUP2 SLOAD DUP2 MSTORE PUSH1 0x20 ADD SWAP1 PUSH1 0x1 ADD SWAP1 DUP1 DUP4 GT PUSH2 0x964 JUMPI JUMPDEST POP POP POP POP POP SWAP2 POP DUP1 DUP1 SLOAD DUP1 PUSH1 0x20 MUL PUSH1 0x20 ADD PUSH1 0x40 MLOAD SWAP1 DUP2 ADD PUSH1 0x40 MSTORE DUP1 SWAP3 SWAP2 SWAP1 DUP2 DUP2 MSTORE PUSH1 0x20 ADD DUP3 DUP1 SLOAD DUP1 ISZERO PUSH2 0x9C8 JUMPI PUSH1 0x20 MUL DUP3 ADD SWAP2 SWAP1 PUSH0 MSTORE PUSH1 0x20 PUSH0 KECCAK256 SWAP1 JUMPDEST DUP2 SLOAD DUP2 MSTORE PUSH1 0x20 ADD SWAP1 PUSH1 0x1 ADD SWAP1 DUP1 DUP4 GT PUSH2 0x9B4 JUMPI JUMPDEST POP POP POP POP POP SWAP1 POP SWAP2 POP SWAP2 POP SWAP1 SWAP2 JUMP JUMPDEST PUSH1 0x8 SLOAD PUSH0 SWAP1 PUSH8 0xDE0B6B3A7640000 SWAP1 DUP3 JUMPDEST DUP2 DUP2 LT ISZERO PUSH2 0xA42 JUMPI PUSH1 0x8 DUP2 DUP2 SLOAD DUP2 LT PUSH2 0xA03 JUMPI PUSH2 0xA03 PUSH2 0x11D5 JUMP JUMPDEST SWAP1 PUSH0 MSTORE PUSH1 0x20 PUSH0 KECCAK256 ADD SLOAD DUP6 LT PUSH2 0xA35 JUMPI PUSH1 0x9 DUP2 DUP2 SLOAD DUP2 LT PUSH2 0xA25 JUMPI PUSH2 0xA25 PUSH2 0x11D5 JUMP JUMPDEST SWAP1 PUSH0 MSTORE PUSH1 0x20 PUSH0 KECCAK256 ADD SLOAD SWAP3 POP PUSH2 0xA3A JUMP JUMPDEST PUSH2 0xA42 JUMP JUMPDEST PUSH1 0x1 ADD PUSH2 0x9E8 JUMP JUMPDEST POP SWAP1 SWAP4 SWAP3 POP POP POP JUMP JUMPDEST PUSH2 0xA53 PUSH2 0xDBB JUMP JUMPDEST PUSH2 0x907 PUSH0 PUSH2 0xE70 JUMP JUMPDEST PUSH2 0xA64 PUSH2 0xDBB JUMP JUMPDEST PUSH0 DUP1 PUSH2 0xA6E PUSH2 0x525 JUMP JUMPDEST PUSH1 0x4 DUP2 SWAP1 SSTORE TIMESTAMP PUSH1 0x3 SSTORE SWAP1 POP PUSH1 0x1 PUSH1 0x1 PUSH1 0xA0 SHL SUB DUP3 AND ISZERO PUSH2 0xB01 JUMPI PUSH1 0x1 PUSH1 0x1 PUSH1 0xA0 SHL SUB DUP3 AND PUSH0 SWAP1 DUP2 MSTORE PUSH1 0x7 PUSH1 0x20 MSTORE PUSH1 0x40 DUP2 KECCAK256 PUSH1 0x1 DUP2 ADD SLOAD SWAP1 SWAP2 SWAP1 ISZERO PUSH2 0xAE1 JUMPI PUSH8 0xDE0B6B3A7640000 DUP3 PUSH1 0x3 ADD SLOAD DUP5 PUSH2 0xAC5 SWAP2 SWAP1 PUSH2 0x1173 JUMP JUMPDEST DUP4 PUSH1 0x1 ADD SLOAD PUSH2 0xAD4 SWAP2 SWAP1 PUSH2 0x118C JUMP JUMPDEST PUSH2 0xADE SWAP2 SWAP1 PUSH2 0x11A3 JUMP JUMPDEST SWAP1 POP JUMPDEST DUP1 DUP3 PUSH1 0x2 ADD PUSH0 DUP3 DUP3 SLOAD PUSH2 0xAF4 SWAP2 SWAP1 PUSH2 0x11C2 JUMP JUMPDEST SWAP1 SWAP2 SSTORE POP POP POP PUSH1 0x3 ADD DUP2 SWAP1 SSTORE JUMPDEST PUSH1 0x2 SLOAD PUSH1 0x40 DUP1 MLOAD SWAP2 DUP3 MSTORE PUSH1 0x20 DUP3 ADD DUP6 SWAP1 MSTORE PUSH32 0xC390A98ACE15A7BB6BAB611EEDFDBB2685043B241A869420043CDFB23CCFEE50 SWAP2 ADD PUSH1 0x40 MLOAD DUP1 SWAP2 SUB SWAP1 LOG1 POP POP PUSH1 0x2 SSTORE JUMP JUMPDEST PUSH1 0x8 DUP2 DUP2 SLOAD DUP2 LT PUSH2 0x918 JUMPI PUSH0 DUP1 REVERT JUMPDEST PUSH2 0xB5B PUSH2 0xDE7 JUMP JUMPDEST CALLER PUSH0 PUSH2 0xB65 PUSH2 0x525 JUMP JUMPDEST PUSH1 0x4 DUP2 SWAP1 SSTORE TIMESTAMP PUSH1 0x3 SSTORE SWAP1 POP PUSH1 0x1 PUSH1 0x1 PUSH1 0xA0 SHL SUB DUP3 AND ISZERO PUSH2 0xBF8 JUMPI PUSH1 0x1 PUSH1 0x1 PUSH1 0xA0 SHL SUB DUP3 AND PUSH0 SWAP1 DUP2 MSTORE PUSH1 0x7 PUSH1 0x20 MSTORE PUSH1 0x40 DUP2 KECCAK256 PUSH1 0x1 DUP2 ADD SLOAD SWAP1 SWAP2 SWAP1 ISZERO PUSH2 0xBD8 JUMPI PUSH8 0xDE0B6B3A7640000 DUP3 PUSH1 0x3 ADD SLOAD DUP5 PUSH2 0xBBC SWAP2 SWAP1 PUSH2 0x1173 JUMP JUMPDEST DUP4 PUSH1 0x1 ADD SLOAD PUSH2 0xBCB SWAP2 SWAP1 PUSH2 0x118C JUMP JUMPDEST PUSH2 0xBD5 SWAP2 SWAP1 PUSH2 0x11A3 JUMP JUMPDEST SWAP1 POP JUMPDEST DUP1 DUP3 PUSH1 0x2 ADD PUSH0 DUP3 DUP3 SLOAD PUSH2 0xBEB SWAP2 SWAP1 PUSH2 0x11C2 JUMP JUMPDEST SWAP1 SWAP2 SSTORE POP POP POP PUSH1 0x3 ADD DUP2 SWAP1 SSTORE JUMPDEST PUSH0 DUP4 GT PUSH2 0xC32 JUMPI PUSH1 0x40 MLOAD PUSH3 0x461BCD PUSH1 0xE5 SHL DUP2 MSTORE PUSH1 0x20 PUSH1 0x4 DUP3 ADD MSTORE PUSH1 0x8 PUSH1 0x24 DUP3 ADD MSTORE PUSH8 0x616D6F756E743D3 PUSH1 0xC4 SHL PUSH1 0x44 DUP3 ADD MSTORE PUSH1 0x64 ADD PUSH2 0x4D2 JUMP JUMPDEST PUSH2 0xC67 PUSH1 0x1 PUSH1 0x1 PUSH1 0xA0 SHL SUB PUSH32 0x0 AND CALLER ADDRESS DUP7 PUSH2 0xEBF JUMP JUMPDEST DUP3 PUSH1 0x5 PUSH0 DUP3 DUP3 SLOAD PUSH2 0xC78 SWAP2 SWAP1 PUSH2 0x11C2 JUMP JUMPDEST SWAP1 SWAP2 SSTORE POP POP CALLER PUSH0 SWAP1 DUP2 MSTORE PUSH1 0x7 PUSH1 0x20 MSTORE PUSH1 0x40 DUP2 KECCAK256 DUP1 SLOAD SWAP1 SWAP2 DUP6 SWAP2 DUP4 SWAP2 SWAP1 PUSH2 0xC9F SWAP1 DUP5 SWAP1 PUSH2 0x11C2 JUMP JUMPDEST SWAP1 SWAP2 SSTORE POP POP DUP1 SLOAD PUSH0 SWAP1 PUSH2 0xCB1 SWAP1 PUSH2 0x9D7 JUMP JUMPDEST SWAP1 POP PUSH0 PUSH8 0xDE0B6B3A7640000 DUP3 DUP5 PUSH0 ADD SLOAD PUSH2 0xCCC SWAP2 SWAP1 PUSH2 0x118C JUMP JUMPDEST PUSH2 0xCD6 SWAP2 SWAP1 PUSH2 0x11A3 JUMP JUMPDEST SWAP1 POP DUP1 DUP4 PUSH1 0x1 ADD SLOAD PUSH1 0x6 SLOAD PUSH2 0xCEB SWAP2 SWAP1 PUSH2 0x1173 JUMP JUMPDEST PUSH2 0xCF5 SWAP2 SWAP1 PUSH2 0x11C2 JUMP JUMPDEST PUSH1 0x6 SSTORE PUSH1 0x1 DUP4 ADD DUP2 SWAP1 SSTORE DUP3 SLOAD PUSH1 0x40 MLOAD CALLER SWAP2 PUSH32 0x1449C6DD7851ABC30ABF37F57715F492010519147CC2652FBC38202C18A6EE90 SWAP2 PUSH2 0x7B3 SWAP2 DUP11 DUP3 MSTORE PUSH1 0x20 DUP3 ADD MSTORE PUSH1 0x40 ADD SWAP1 JUMP JUMPDEST PUSH2 0xD42 PUSH2 0xDBB JUMP JUMPDEST PUSH2 0xD56 PUSH1 0x1 PUSH1 0x1 PUSH1 0xA0 SHL SUB DUP5 AND DUP3 DUP5 PUSH2 0xE11 JUMP JUMPDEST POP POP POP JUMP JUMPDEST CALLER PUSH0 SWAP1 DUP2 MSTORE PUSH1 0x7 PUSH1 0x20 MSTORE PUSH1 0x40 SWAP1 KECCAK256 SLOAD DUP1 ISZERO PUSH2 0xD79 JUMPI PUSH2 0xD79 DUP2 PUSH2 0x58C JUMP JUMPDEST PUSH2 0x7C9 PUSH2 0x7CC JUMP JUMPDEST PUSH2 0xD89 PUSH2 0xDBB JUMP JUMPDEST PUSH1 0x1 PUSH1 0x1 PUSH1 0xA0 SHL SUB DUP2 AND PUSH2 0xDB2 JUMPI PUSH1 0x40 MLOAD PUSH4 0x1E4FBDF7 PUSH1 0xE0 SHL DUP2 MSTORE PUSH0 PUSH1 0x4 DUP3 ADD MSTORE PUSH1 0x24 ADD PUSH2 0x4D2 JUMP JUMPDEST PUSH2 0x7C9 DUP2 PUSH2 0xE70 JUMP JUMPDEST PUSH0 SLOAD PUSH1 0x1 PUSH1 0x1 PUSH1 0xA0 SHL SUB AND CALLER EQ PUSH2 0x907 JUMPI PUSH1 0x40 MLOAD PUSH4 0x118CDAA7 PUSH1 0xE0 SHL DUP2 MSTORE CALLER PUSH1 0x4 DUP3 ADD MSTORE PUSH1 0x24 ADD PUSH2 0x4D2 JUMP JUMPDEST PUSH1 0x2 PUSH1 0x1 SLOAD SUB PUSH2 0xE0A JUMPI PUSH1 0x40 MLOAD PUSH4 0x3EE5AEB5 PUSH1 0xE0 SHL DUP2 MSTORE PUSH1 0x4 ADD PUSH1 0x40 MLOAD DUP1 SWAP2 SUB SWAP1 REVERT JUMPDEST PUSH1 0x2 PUSH1 0x1 SSTORE JUMP JUMPDEST PUSH1 0x40 MLOAD PUSH1 0x1 PUSH1 0x1 PUSH1 0xA0 SHL SUB DUP4 DUP2 AND PUSH1 0x24 DUP4 ADD MSTORE PUSH1 0x44 DUP3 ADD DUP4 SWAP1 MSTORE PUSH2 0xD56 SWAP2 DUP6 SWAP2 DUP3 AND SWAP1 PUSH4 0xA9059CBB SWAP1 PUSH1 0x64 ADD JUMPDEST PUSH1 0x40 MLOAD PUSH1 0x20 DUP2 DUP4 SUB SUB DUP2 MSTORE SWAP1 PUSH1 0x40 MSTORE SWAP2 POP PUSH1 0xE0 SHL PUSH1 0x20 DUP3 ADD DUP1 MLOAD PUSH1 0x1 PUSH1 0x1 PUSH1 0xE0 SHL SUB DUP4 DUP2 DUP4 AND OR DUP4 MSTORE POP POP POP POP PUSH2 0xEFE JUMP JUMPDEST PUSH0 DUP1 SLOAD PUSH1 0x1 PUSH1 0x1 PUSH1 0xA0 SHL SUB DUP4 DUP2 AND PUSH1 0x1 PUSH1 0x1 PUSH1 0xA0 SHL SUB NOT DUP4 AND DUP2 OR DUP5 SSTORE PUSH1 0x40 MLOAD SWAP2 SWAP1 SWAP3 AND SWAP3 DUP4 SWAP2 PUSH32 0x8BE0079C531659141344CD1FD0A4F28419497F9722A3DAAFE3B4186F6B6457E0 SWAP2 SWAP1 LOG3 POP POP JUMP JUMPDEST PUSH1 0x40 MLOAD PUSH1 0x1 PUSH1 0x1 PUSH1 0xA0 SHL SUB DUP5 DUP2 AND PUSH1 0x24 DUP4 ADD MSTORE DUP4 DUP2 AND PUSH1 0x44 DUP4 ADD MSTORE PUSH1 0x64 DUP3 ADD DUP4 SWAP1 MSTORE PUSH2 0xEF8 SWAP2 DUP7 SWAP2 DUP3 AND SWAP1 PUSH4 0x23B872DD SWAP1 PUSH1 0x84 ADD PUSH2 0xE3E JUMP JUMPDEST POP POP POP POP JUMP JUMPDEST PUSH0 DUP1 PUSH1 0x20 PUSH0 DUP5 MLOAD PUSH1 0x20 DUP7 ADD PUSH0 DUP9 GAS CALL DUP1 PUSH2 0xF1D JUMPI PUSH1 0x40 MLOAD RETURNDATASIZE PUSH0 DUP3 RETURNDATACOPY RETURNDATASIZE DUP2 REVERT JUMPDEST POP POP PUSH0 MLOAD RETURNDATASIZE SWAP2 POP DUP2 ISZERO PUSH2 0xF34 JUMPI DUP1 PUSH1 0x1 EQ ISZERO PUSH2 0xF41 JUMP JUMPDEST PUSH1 0x1 PUSH1 0x1 PUSH1 0xA0 SHL SUB DUP5 AND EXTCODESIZE ISZERO JUMPDEST ISZERO PUSH2 0xEF8 JUMPI PUSH1 0x40 MLOAD PUSH4 0x5274AFE7 PUSH1 0xE0 SHL DUP2 MSTORE PUSH1 0x1 PUSH1 0x1 PUSH1 0xA0 SHL SUB DUP6 AND PUSH1 0x4 DUP3 ADD MSTORE PUSH1 0x24 ADD PUSH2 0x4D2 JUMP JUMPDEST DUP3 DUP1 SLOAD DUP3 DUP3 SSTORE SWAP1 PUSH0 MSTORE PUSH1 0x20 PUSH0 KECCAK256 SWAP1 DUP2 ADD SWAP3 DUP3 ISZERO PUSH2 0xFA3 JUMPI SWAP2 PUSH1 0x20 MUL DUP3 ADD JUMPDEST DUP3 DUP2 GT ISZERO PUSH2 0xFA3 JUMPI DUP3 CALLDATALOAD DUP3 SSTORE SWAP2 PUSH1 0x20 ADD SWAP2 SWAP1 PUSH1 0x1 ADD SWAP1 PUSH2 0xF88 JUMP JUMPDEST POP PUSH2 0xFAF SWAP3 SWAP2 POP PUSH2 0xFB3 JUMP JUMPDEST POP SWAP1 JUMP JUMPDEST JUMPDEST DUP1 DUP3 GT ISZERO PUSH2 0xFAF JUMPI PUSH0 DUP2 SSTORE PUSH1 0x1 ADD PUSH2 0xFB4 JUMP JUMPDEST DUP1 CALLDATALOAD PUSH1 0x1 PUSH1 0x1 PUSH1 0xA0 SHL SUB DUP2 AND DUP2 EQ PUSH2 0xFDD JUMPI PUSH0 DUP1 REVERT JUMPDEST SWAP2 SWAP1 POP JUMP JUMPDEST PUSH0 PUSH1 0x20 DUP3 DUP5 SUB SLT ISZERO PUSH2 0xFF2 JUMPI PUSH0 DUP1 REVERT JUMPDEST PUSH2 0xFFB DUP3 PUSH2 0xFC7 JUMP JUMPDEST SWAP4 SWAP3 POP POP POP JUMP JUMPDEST PUSH0 DUP1 DUP4 PUSH1 0x1F DUP5 ADD SLT PUSH2 0x1012 JUMPI PUSH0 DUP1 REVERT JUMPDEST POP DUP2 CALLDATALOAD PUSH8 0xFFFFFFFFFFFFFFFF DUP2 GT ISZERO PUSH2 0x1029 JUMPI PUSH0 DUP1 REVERT JUMPDEST PUSH1 0x20 DUP4 ADD SWAP2 POP DUP4 PUSH1 0x20 DUP3 PUSH1 0x5 SHL DUP6 ADD ADD GT ISZERO PUSH2 0x1043 JUMPI PUSH0 DUP1 REVERT JUMPDEST SWAP3 POP SWAP3 SWAP1 POP JUMP JUMPDEST PUSH0 DUP1 PUSH0 DUP1 PUSH1 0x40 DUP6 DUP8 SUB SLT ISZERO PUSH2 0x105D JUMPI PUSH0 DUP1 REVERT JUMPDEST DUP5 CALLDATALOAD PUSH8 0xFFFFFFFFFFFFFFFF DUP1 DUP3 GT ISZERO PUSH2 0x1074 JUMPI PUSH0 DUP1 REVERT JUMPDEST PUSH2 0x1080 DUP9 DUP4 DUP10 ADD PUSH2 0x1002 JUMP JUMPDEST SWAP1 SWAP7 POP SWAP5 POP PUSH1 0x20 DUP8 ADD CALLDATALOAD SWAP2 POP DUP1 DUP3 GT ISZERO PUSH2 0x1098 JUMPI PUSH0 DUP1 REVERT JUMPDEST POP PUSH2 0x10A5 DUP8 DUP3 DUP9 ADD PUSH2 0x1002 JUMP JUMPDEST SWAP6 SWAP9 SWAP5 SWAP8 POP SWAP6 POP POP POP POP JUMP JUMPDEST PUSH0 PUSH1 0x20 DUP3 DUP5 SUB SLT ISZERO PUSH2 0x10C1 JUMPI PUSH0 DUP1 REVERT JUMPDEST POP CALLDATALOAD SWAP2 SWAP1 POP JUMP JUMPDEST PUSH0 DUP2 MLOAD DUP1 DUP5 MSTORE PUSH1 0x20 DUP1 DUP6 ADD SWAP5 POP PUSH1 0x20 DUP5 ADD PUSH0 JUMPDEST DUP4 DUP2 LT ISZERO PUSH2 0x10F7 JUMPI DUP2 MLOAD DUP8 MSTORE SWAP6 DUP3 ADD SWAP6 SWAP1 DUP3 ADD SWAP1 PUSH1 0x1 ADD PUSH2 0x10DB JUMP JUMPDEST POP SWAP5 SWAP6 SWAP5 POP POP POP POP POP JUMP JUMPDEST PUSH1 0x40 DUP2 MSTORE PUSH0 PUSH2 0x1114 PUSH1 0x40 DUP4 ADD DUP6 PUSH2 0x10C8 JUMP JUMPDEST DUP3 DUP2 SUB PUSH1 0x20 DUP5 ADD MSTORE PUSH2 0x3ED DUP2 DUP6 PUSH2 0x10C8 JUMP JUMPDEST PUSH0 DUP1 PUSH0 PUSH1 0x60 DUP5 DUP7 SUB SLT ISZERO PUSH2 0x1138 JUMPI PUSH0 DUP1 REVERT JUMPDEST PUSH2 0x1141 DUP5 PUSH2 0xFC7 JUMP JUMPDEST SWAP3 POP PUSH1 0x20 DUP5 ADD CALLDATALOAD SWAP2 POP PUSH2 0x1156 PUSH1 0x40 DUP6 ADD PUSH2 0xFC7 JUMP JUMPDEST SWAP1 POP SWAP3 POP SWAP3 POP SWAP3 JUMP JUMPDEST PUSH4 0x4E487B71 PUSH1 0xE0 SHL PUSH0 MSTORE PUSH1 0x11 PUSH1 0x4 MSTORE PUSH1 0x24 PUSH0 REVERT JUMPDEST DUP2 DUP2 SUB DUP2 DUP2 GT ISZERO PUSH2 0x1186 JUMPI PUSH2 0x1186 PUSH2 0x115F JUMP JUMPDEST SWAP3 SWAP2 POP POP JUMP JUMPDEST DUP1 DUP3 MUL DUP2 ISZERO DUP3 DUP3 DIV DUP5 EQ OR PUSH2 0x1186 JUMPI PUSH2 0x1186 PUSH2 0x115F JUMP JUMPDEST PUSH0 DUP3 PUSH2 0x11BD JUMPI PUSH4 0x4E487B71 PUSH1 0xE0 SHL PUSH0 MSTORE PUSH1 0x12 PUSH1 0x4 MSTORE PUSH1 0x24 PUSH0 REVERT JUMPDEST POP DIV SWAP1 JUMP JUMPDEST DUP1 DUP3 ADD DUP1 DUP3 GT ISZERO PUSH2 0x1186 JUMPI PUSH2 0x1186 PUSH2 0x115F JUMP JUMPDEST PUSH4 0x4E487B71 PUSH1 0xE0 SHL PUSH0 MSTORE PUSH1 0x32 PUSH1 0x4 MSTORE PUSH1 0x24 PUSH0 REVERT INVALID LOG2 PUSH5 0x6970667358 0x22 SLT KECCAK256 0x1E 0x2F 0x29 SWAP12 0xBE KECCAK256 PUSH5 0x9512340647 MSTORE SWAP13 SHR PUSH6 0x221175222A5A PUSH17 0x75A994BC5C74D9A3ED64736F6C63430008 XOR STOP CALLER "},"methodIdentifiers":{"currentMultiplier(uint256)":"4e38e64a","earned(address)":"008cc262","exit()":"e9fad8ee","getReward()":"3d18b912","lastUpdateTime()":"c8f33c91","owner()":"8da5cb5b","recoverToken(address,uint256,address)":"d04323c5","renounceOwnership()":"715018a6","rewardPerWeightedStake()":"261a426c","rewardPerWeightedStakeStored()":"3d1d26e1","rewardRatePerSecond()":"5d773b2c","rewardToken()":"f7c618c1","setRewardRate(uint256)":"9e447fc6","setTiers(uint256[],uint256[])":"1b8ebc3c","stake(uint256)":"a694fc3a","stakeToken()":"51ed6a30","tierMultipliers(uint256)":"47b3d295","tierThresholds(uint256)":"a100d69d","tiers()":"4a95d9d5","totalStaked()":"817b1cd2","totalWeightedStake()":"eed9da1f","transferOwnership(address)":"f2fde38b","users(address)":"a87430ba","withdraw(uint256)":"2e1a7d4d"}}}}}